{
  "contractName": "UploadFiles",
  "abi": [
    {
      "constant": true,
      "inputs": [],
      "name": "songCount",
      "outputs": [
        {
          "name": "",
          "type": "uint256"
        }
      ],
      "payable": false,
      "stateMutability": "view",
      "type": "function",
      "signature": "0x931a889b"
    },
    {
      "constant": true,
      "inputs": [
        {
          "name": "",
          "type": "uint256"
        }
      ],
      "name": "SongsList",
      "outputs": [
        {
          "name": "id",
          "type": "uint256"
        },
        {
          "name": "hashCode",
          "type": "string"
        },
        {
          "name": "songName",
          "type": "string"
        },
        {
          "name": "album",
          "type": "string"
        },
        {
          "name": "artist",
          "type": "address"
        }
      ],
      "payable": false,
      "stateMutability": "view",
      "type": "function",
      "signature": "0xf0651679"
    },
    {
      "anonymous": false,
      "inputs": [
        {
          "indexed": false,
          "name": "id",
          "type": "uint256"
        },
        {
          "indexed": false,
          "name": "hashCode",
          "type": "string"
        },
        {
          "indexed": false,
          "name": "songName",
          "type": "string"
        },
        {
          "indexed": false,
          "name": "album",
          "type": "string"
        },
        {
          "indexed": false,
          "name": "artist",
          "type": "address"
        }
      ],
      "name": "SongAdded",
      "type": "event",
      "signature": "0x0769223dcd7e6f56fab4763fa5e56ce6dcf58417e34c51f4e80d0edd5cdd98d7"
    },
    {
      "constant": false,
      "inputs": [
        {
          "name": "hashCode",
          "type": "string"
        },
        {
          "name": "songName",
          "type": "string"
        },
        {
          "name": "album",
          "type": "string"
        }
      ],
      "name": "set",
      "outputs": [],
      "payable": false,
      "stateMutability": "nonpayable",
      "type": "function",
      "signature": "0xda465d74"
    }
  ],
  "bytecode": "0x60806040526000805534801561001457600080fd5b50610a01806100246000396000f3fe608060405260043610610057576000357c0100000000000000000000000000000000000000000000000000000000900463ffffffff168063931a889b1461005c578063da465d7414610087578063f06516791461027d575b600080fd5b34801561006857600080fd5b50610071610443565b6040518082815260200191505060405180910390f35b34801561009357600080fd5b5061027b600480360360608110156100aa57600080fd5b81019080803590602001906401000000008111156100c757600080fd5b8201836020820111156100d957600080fd5b803590602001918460018302840111640100000000831117156100fb57600080fd5b91908080601f016020809104026020016040519081016040528093929190818152602001838380828437600081840152601f19601f8201169050808301925050505050505091929192908035906020019064010000000081111561015e57600080fd5b82018360208201111561017057600080fd5b8035906020019184600183028401116401000000008311171561019257600080fd5b91908080601f016020809104026020016040519081016040528093929190818152602001838380828437600081840152601f19601f820116905080830192505050505050509192919290803590602001906401000000008111156101f557600080fd5b82018360208201111561020757600080fd5b8035906020019184600183028401116401000000008311171561022957600080fd5b91908080601f016020809104026020016040519081016040528093929190818152602001838380828437600081840152601f19601f820116905080830192505050505050509192919290505050610449565b005b34801561028957600080fd5b506102b6600480360360208110156102a057600080fd5b8101908080359060200190929190505050610712565b604051808681526020018060200180602001806020018573ffffffffffffffffffffffffffffffffffffffff1673ffffffffffffffffffffffffffffffffffffffff168152602001848103845288818151815260200191508051906020019080838360005b8381101561033657808201518184015260208101905061031b565b50505050905090810190601f1680156103635780820380516001836020036101000a031916815260200191505b50848103835287818151815260200191508051906020019080838360005b8381101561039c578082015181840152602081019050610381565b50505050905090810190601f1680156103c95780820380516001836020036101000a031916815260200191505b50848103825286818151815260200191508051906020019080838360005b838110156104025780820151818401526020810190506103e7565b50505050905090810190601f16801561042f5780820380516001836020036101000a031916815260200191505b509850505050505050505060405180910390f35b60005481565b600080815480929190600101919050555060a06040519081016040528060005481526020018481526020018381526020018281526020013373ffffffffffffffffffffffffffffffffffffffff1681525060016000805481526020019081526020016000206000820151816000015560208201518160010190805190602001906104d4929190610930565b5060408201518160020190805190602001906104f1929190610930565b50606082015181600301908051906020019061050e929190610930565b5060808201518160040160006101000a81548173ffffffffffffffffffffffffffffffffffffffff021916908373ffffffffffffffffffffffffffffffffffffffff1602179055509050507f0769223dcd7e6f56fab4763fa5e56ce6dcf58417e34c51f4e80d0edd5cdd98d760005484848433604051808681526020018060200180602001806020018573ffffffffffffffffffffffffffffffffffffffff1673ffffffffffffffffffffffffffffffffffffffff168152602001848103845288818151815260200191508051906020019080838360005b838110156106015780820151818401526020810190506105e6565b50505050905090810190601f16801561062e5780820380516001836020036101000a031916815260200191505b50848103835287818151815260200191508051906020019080838360005b8381101561066757808201518184015260208101905061064c565b50505050905090810190601f1680156106945780820380516001836020036101000a031916815260200191505b50848103825286818151815260200191508051906020019080838360005b838110156106cd5780820151818401526020810190506106b2565b50505050905090810190601f1680156106fa5780820380516001836020036101000a031916815260200191505b509850505050505050505060405180910390a1505050565b6001602052806000526040600020600091509050806000015490806001018054600181600116156101000203166002900480601f0160208091040260200160405190810160405280929190818152602001828054600181600116156101000203166002900480156107c45780601f10610799576101008083540402835291602001916107c4565b820191906000526020600020905b8154815290600101906020018083116107a757829003601f168201915b505050505090806002018054600181600116156101000203166002900480601f0160208091040260200160405190810160405280929190818152602001828054600181600116156101000203166002900480156108625780601f1061083757610100808354040283529160200191610862565b820191906000526020600020905b81548152906001019060200180831161084557829003601f168201915b505050505090806003018054600181600116156101000203166002900480601f0160208091040260200160405190810160405280929190818152602001828054600181600116156101000203166002900480156109005780601f106108d557610100808354040283529160200191610900565b820191906000526020600020905b8154815290600101906020018083116108e357829003601f168201915b5050505050908060040160009054906101000a900473ffffffffffffffffffffffffffffffffffffffff16905085565b828054600181600116156101000203166002900490600052602060002090601f016020900481019282601f1061097157805160ff191683800117855561099f565b8280016001018555821561099f579182015b8281111561099e578251825591602001919060010190610983565b5b5090506109ac91906109b0565b5090565b6109d291905b808211156109ce5760008160009055506001016109b6565b5090565b9056fea165627a7a72305820ced394800878fc16246456b92b7ef87da3efd57db861962b7b0008a47298a7130029",
  "source": "pragma solidity ^0.5.0;\ncontract UploadFiles{\n    uint public songCount = 0;\n    mapping(uint => Songs) public SongsList;\n\n    struct Songs{\n        uint id;\n        string hashCode;\n        string songName;\n        string album;\n        address artist;\n    }\n\n    event SongAdded(\n        uint id,\n        string hashCode,\n        string songName,\n        string album,\n        address artist\n    );\n    \n\n    function set(string memory hashCode,string memory songName,string memory album) public{\n        songCount++;\n        SongsList[songCount] = Songs(songCount,hashCode,songName,album,msg.sender);\n        emit SongAdded(songCount,hashCode,songName,album,msg.sender);\n\n    }\n}",
  "sourcePath": "/home/puter/Projects/Finale/client/src/contracts/UploadFiles.sol",
  "compiler": {
    "name": "solc",
    "version": "0.5.0+commit.1d4f565a.Emscripten.clang"
  },
  "schemaVersion": "3.0.1",
  "updatedAt": "2020-03-31T10:51:27.371Z",
  "devdoc": {
    "methods": {}
  },
  "userdoc": {
    "methods": {}
  }
}